:020000040800F2
:10000000005000203918000801030008030300080D
:1000100005030008070300080903000800000000AA
:100020000000000000000000000000000B030008BA
:100030000D030008000000000F0300081103000872
:10004000811800088118000881180008811800082C
:10005000811800088118000881180008811800081C
:10006000811800088118000881180008811800080C
:1000700081180008811800088118000881180008FC
:1000800081180008811800088118000881180008EC
:1000900081180008811800088118000881180008DC
:1000A00081180008811800088118000881180008CC
:1000B0001903000881180008811800088118000839
:1000C00081180008811800088118000881180008AC
:1000D0008118000829030008811800088118000809
:1000E000811800088118000881180008000000002D
:1000F0000000000000000000000000000000000000
:0C01000000000000000000005FF808F1A3
:10010C0010B5054C237833B9044B13B10448AFF345
:10011C0000800123237010BD14000020000000009B
:10012C00DC18000808B5034B1BB103490348AFF3B7
:10013C00008008BD0000000018000020DC1800083A
:10014C0030B589B000240494059406940794184B98
:10015C009A6942F020029A619A6902F02002019297
:10016C00019A9A6942F008029A619A6902F00802AF
:10017C000292029A9A6942F004029A619B6903F016
:10018C0004030393039B0B4D22464FF40051284666
:10019C0000F0FAFF4FF400530493012305930694E7
:1001AC000223079304A9284600F0DCFE09B030BDF9
:1001BC0000100240000C014030B587B000240294BE
:1001CC00039404940594009401940F4D4FF08043D4
:1001DC002B6047236B60AC6042F20F73EB602C61B9
:1001EC00AC61284600F050FA4FF48053029302A9F8
:1001FC00284600F081FA009401946946284600F0E4
:10020C00E9FA07B030BD00BF3000002008B508483F
:10021C00084B03604FF4E133436000238360C360F9
:10022C0003610C2242618361C36101F021F908BDB5
:10023C00780000200038014030B591B02822002110
:10024C0006A801F03DFB002401940294039404944D
:10025C000594012206924FF4803307930A920225EB
:10026C000D950E934FF4E0130F9306A800F05EFB70
:10027C000F230193029503944FF480630493059428
:10028C00294601A800F092FD11B030BD08B500F070
:10029C00FFFAFFF7D1FFFFF753FFFFF78DFFFFF7D3
:1002AC00B5FF08220F49104801F011F90A2000F09F
:1002BC0013FB0E4C01224FF40051204600F064FF5A
:1002CC00642000F009FB00224FF40051204600F09E
:1002DC005BFF642000F000FB054A136801331360D8
:1002EC00E4E700BF0000002078000020000C014073
:1002FC00BC0000207047FEE7FEE7FEE7FEE7704714
:10030C007047704708B500F0D5FA08BD08B502482B
:10031C0000F0C2F808BD00BF3000002008B502484C
:10032C0001F080F908BD00BF7800002082B00E4BB0
:10033C009A6942F001029A619A6902F001020092F4
:10034C00009ADA6942F08052DA61DB6903F080537B
:10035C000193019B054A536823F0E06343F000735B
:10036C00536002B0704700BF001002400000014013
:10037C000368B3F1804F00D0704700B583B003F52C
:10038C000433DA6942F00102DA61DB6903F001033C
:10039C000193019B002211461C2000F07BFF1C20C6
:1003AC0000F0B0FF03B05DF804FB000030B587B07F
:1003BC000023029303930493059302681B4B9A4208
:1003CC0001D007B030BD03F558439A6942F480421E
:1003DC009A619A6902F480420092009A9A6942F0FA
:1003EC0004029A619B6903F004030193019B4FF48F
:1003FC000073029302230393032305930C4D02A96C
:10040C00284600F0AFFD4FF4806302930024039460
:10041C00049402A9284600F0A5FD22462146252079
:10042C0000F038FF252000F06DFFCAE700380140CE
:10043C000008014010B4036A046A24F00104046249
:10044C00846924F0F00C4CEA021223F00A030B43EB
:10045C008261036210BC704710B4046A24F010046B
:10046C0004628469036A24F4704C4CEA023223F06F
:10047C00A00343EA01138261036210BC70478368D6
:10048C0023F070030B4343F00703836070477047FE
:10049C00704770477047704710B5044603681A6977
:1004AC0012F0020F11D0DA6812F0020F0DD06FF0BB
:1004BC0002021A610123037703689B6913F0030F8F
:1004CC0070D0FFF7E6FF0023237723681A6912F038
:1004DC00040F12D0DA6812F0040F0ED06FF0040281
:1004EC001A610223237723689B6913F4407F5FD042
:1004FC002046FFF7CEFF0023237723681A6912F0FA
:10050C00080F12D0DA6812F0080F0ED06FF0080244
:10051C001A61042323772368DB6913F0030F4ED091
:10052C002046FFF7B6FF0023237723681A6912F0E1
:10053C00100F12D0DA6812F0100F0ED06FF01002FC
:10054C001A61082323772368DB6913F4407F3DD0BD
:10055C002046FFF79EFF0023237723681A6912F0C9
:10056C00010F03D0DA6812F0010F36D123681A6933
:10057C0012F0800F03D0DA6812F0800F34D12368A8
:10058C001A6912F0400F03D0DA6812F0400F32D122
:10059C0023681A6912F0200F03D0DA6812F0200FCA
:1005AC0030D110BDFFF774FF2046FFF773FF8AE7C9
:1005BC002046FFF76DFF2046FFF76CFF9BE72046B8
:1005CC00FFF766FF2046FFF765FFACE72046FFF715
:1005DC005FFF2046FFF75EFFBDE76FF001021A6177
:1005EC002046FFF754FFC1E76FF080021A612046E6
:1005FC0000F027F9C3E76FF040021A612046FFF7BD
:10060C004AFFC5E76FF020021A61204600F018F986
:10061C00C7E7000003681B4A90420AD0B0F1804F34
:10062C0007D0A2F59432904203D002F5806290423A
:10063C0003D123F070034A681343124A90420AD044
:10064C00B0F1804F07D0A2F59432904203D002F55E
:10065C008062904203D123F44073CA68134323F0A1
:10066C0080034A69134303608B68C3620B6883621F
:10067C00044B984202D00123436170470B6903631A
:10068C00F9E700BF002C014040B310B5044690F8C8
:10069C003D30F3B1022384F83D30214651F8040B70
:1006AC00FFF7B8FF012384F8463084F83E3084F815
:1006BC003F3084F8403084F8413084F8423084F87C
:1006CC00433084F8443084F8453084F83D300020C1
:1006DC0010BD80F83C30FFF74BFEDBE70120704784
:1006EC0010B4846824F47F4C42EA03220A4342EAA1
:1006FC000C02826010BC704790F83C30012B66D025
:10070C0010B50446012380F83C30022380F83D30BC
:10071C000268936823F47F4323F0770393600B689C
:10072C00602B40D022D8402B47D00BD9502B0ED168
:10073C00CA6849680068FFF77DFE50212068FFF702
:10074C009EFE04E0202B0CD008D9302B09D00123BD
:10075C0084F83D30002084F83C0010BD0BB1102B08
:10076C00F5D119462068FFF78AFEF0E7702B0ED002
:10077C00B3F5005FEBD1CB684A6889680068FFF776
:10078C00AFFF2268936843F480439360DFE7CB6844
:10079C004A6889680068FFF7A3FF2268936843F0F2
:1007AC0077039360D3E7CA6849680068FFF754FE83
:1007BC0060212068FFF763FEC9E7CA6849680068D2
:1007CC00FFF738FE40212068FFF759FEBFE70220F3
:1007DC007047000090F83C30012B2CD010B4012352
:1007EC0080F83C30022380F83D3003685A689C68DE
:1007FC0022F0700C0A6842EA0C025A6003680F4A35
:10080C0093420AD0B3F1804F07D0A2F594329342B1
:10081C0003D002F58062934204D124F080044A682C
:10082C0014439C60012380F83D30002380F83C3059
:10083C00184610BC70470220704700BF002C0140C6
:10084C007047704710B504460E4B18784FF47A7306
:10085C00B3FBF0F30C4A1068B0FBF3F000F060FD52
:10086C0068B90F2C01D901200AE0002221464FF073
:10087C00FF3000F00FFD054B1C60002000E0012054
:10088C0010BD00BF08000020100000200C0000204C
:10089C0008B5074A136843F010031360032000F0F7
:1008AC00E7FC0020FFF7CEFFFFF740FD002008BD5E
:1008BC0000200240034A1168034B1B780B44136061
:1008CC00704700BFC000002008000020014B1868D2
:1008DC00704700BFC000002038B50446FFF7F6FF94
:1008EC000546B4F1FF3F02D0044B1B781C44FFF7C4
:1008FC00EDFF401BA042FAD338BD00BF080000201A
:10090C0082B0084B1B68084AA2FB03235B0A00FB5E
:10091C0003F3019300BF019B5A1E0192002BF9D1E6
:10092C0002B0704710000020D34D6210002800F078
:10093C00F18170B582B00446036813F0010F2CD01E
:10094C00994B5B6803F00C03042B1DD0964B5B6832
:10095C0003F00C03082B12D06368B3F5803F41D031
:10096C00002B55D103F1804303F504331A6822F4AC
:10097C0080321A601A6822F480221A6037E08A4B9F
:10098C005B6813F4803FE7D0874B1B6813F4003F80
:10099C0003D06368002B00F0BF81236813F0020FB3
:1009AC0075D0814B5B6813F00C0F5FD07E4B5B688E
:1009BC0003F00C03082B54D02369002B00F08A8021
:1009CC007A4B01221A60FFF781FF0546764B1B68B4
:1009DC0013F0020F75D1FFF779FF401B0228F5D9F0
:1009EC0003209EE1704A136843F4803313606368FC
:1009FC0043B3FFF76BFF05466B4B1B6813F4003FCB
:100A0C00CBD1FFF763FF401B6428F5D9032088E1A5
:100A1C00B3F5A02F09D0644B1A6822F480321A6007
:100A2C001A6822F480221A60E1E703F18043A3F5EF
:100A3C003C331A6842F480221A601A6842F48032FD
:100A4C001A60D4E7FFF742FF0546574B1B6813F4B7
:100A5C00003FA2D0FFF73AFF401B6428F5D90320D2
:100A6C005FE1514B5B6813F4803FA5D14E4B1B6883
:100A7C0013F0020F03D02369012B40F04F814A4A37
:100A8C00136823F0F803616943EAC1031360236818
:100A9C0013F0080F33D0A369002B5CD0434B012219
:100AAC00C3F88024FFF712FF05463F4B5B6A13F037
:100ABC00020F21D1FFF70AFF401B0228F5D90320B2
:100ACC002FE1394A136823F0F803616943EAC10343
:100ADC001360DCE7354B00221A60FFF7F7FE054682
:100AEC00314B1B6813F0020FD1D0FFF7EFFE401B08
:100AFC000228F5D9032014E10120FFF701FF236838
:100B0C0013F0040F00F09680274BDB6913F0805F25
:100B1C0034D1254BDA6942F08052DA61DB6903F09B
:100B2C0080530193019B0125214B1B6813F4807F9B
:100B3C0026D0E368012B3DD0002B53D103F1804329
:100B4C0003F504331A6A22F001021A621A6A22F0BF
:100B5C0004021A6233E0154B0022C3F88024FFF71D
:100B6C00B5FE0546104B5B6A13F0020FC7D0FFF7BA
:100B7C00ADFE401B0228F5D90320D2E00025D3E7B7
:100B8C000B4A136843F480731360FFF79FFE06460D
:100B9C00074B1B6813F4807FCBD1FFF797FE801BAC
:100BAC006428F5D90320BCE000100240000042424A
:100BBC00007000405F4A136A43F001031362E3685C
:100BCC0033B3FFF783FE06465A4B1B6A13F0020F32
:100BDC002FD1FFF77BFE801B41F288339842F3D96B
:100BEC0003209EE0052B09D0524B1A6A22F0010219
:100BFC001A621A6A22F004021A62E0E74D4B1A6A72
:100C0C0042F004021A621A6A42F001021A62D6E732
:100C1C00FFF75CFE0646474B1B6A13F0020F08D029
:100C2C00FFF754FE801B41F288339842F3D903201E
:100C3C0077E0E5B9E369002B72D03E4A526802F0C6
:100C4C000C02082A56D0022B17D03B4B00221A66F6
:100C5C00FFF73CFE0446374B1B6813F0007F47D070
:100C6C00FFF734FE001B0228F5D9032059E0314A66
:100C7C00D36923F08053D361DCE72F4B00221A6633
:100C8C00FFF724FE05462B4B1B6813F0007F06D0A4
:100C9C00FFF71CFE401B0228F5D9032041E0236A14
:100CAC00B3F5803F1AD023494B6823F47413226A9E
:100CBC00606A024313434B601F4B01221A66FFF715
:100CCC0005FE04461B4B1B6813F0007F0ED1FFF78B
:100CDC00FDFD001B0228F5D9032022E0154A5368BC
:100CEC0023F40033A1680B435360DCE7002018E0C9
:100CFC00002016E0012B16D00E4B5B6803F48031FC
:100D0C00226A914211D103F47013626A93420ED19C
:100D1C00002006E001207047012002E0012000E0E5
:100D2C00002002B070BD0120FBE70120F9E7012093
:100D3C00F7E700BF001002400000424286B0174B9C
:100D4C000FCB0DF1180C0CE90F0040F20123ADF89C
:100D5C000430134B5B6803F00C02082A02D01148D4
:100D6C0006B07047C3F3834218326A4412F8100C71
:100D7C0013F4803F0DD00A4B5B68C3F34043183328
:100D8C006B4413F8143C074A02FB00F0B0FBF3F081
:100D9C00E6E7054B03FB00F0E2E700BFF4180008A0
:100DAC000010024000127A0000093D00002800F0FB
:100DBC00A08070B50D460446524B1B6803F0070328
:100DCC008B420BD24F4A136823F007030B4313607B
:100DDC00136803F007038B4240F08D80236813F0F7
:100DEC00020F17D013F0040F04D0474A536843F492
:100DFC00E0635360236813F0080F04D0424A536831
:100E0C0043F460535360404A536823F0F003A168E5
:100E1C000B435360236813F0010F31D06368012B2F
:100E2C0020D0022B25D0384A126812F0020F64D061
:100E3C0035494A6822F0030213434B60FFF746FD25
:100E4C000646314B5B6803F00C036268B3EB820F10
:100E5C0016D0FFF73BFD801B41F288339842F0D946
:100E6C00032045E0284A126812F4003FE0D101202B
:100E7C003EE0254A126812F0007FD9D1012037E0FC
:100E8C00204B1B6803F00703AB420AD91D4A1368B9
:100E9C0023F007032B431360136803F00703AB42E3
:100EAC002DD1236813F0040F06D0174A536823F48E
:100EBC00E063E1680B435360236813F0080F07D01D
:100ECC00114A536823F46053216943EAC103536008
:100EDC00FFF734FF0C4B5B68C3F303130B4AD35C73
:100EEC00D8400B4B18600B4B1868FFF7ABFC00207D
:100EFC0070BD012070470120FAE70120F8E70120BE
:100F0C00F6E700BF0020024000100240081900085C
:100F1C00100000200C000020014B1868704700BF27
:100F2C001000002008B5FFF7F7FF044B5B68C3F314
:100F3C000223034AD35CD84008BD00BF0010024016
:100F4C001819000808B5FFF7E7FF044B5B68C3F3FB
:100F5C00C223034AD35CD84008BD00BF0010024036
:100F6C001819000870B582B00024A446A6E0804D84
:100F7C00AA4210D007D97F4DAA420CD005F5803576
:100F8C00AA4208D013E0A5F58015AA4203D005F5B6
:100F9C007025AA4207D18A68002A58D0012A51D05C
:100FAC004361082403E0A5F58015AA42F3D0BEF1F5
:100FBC00FF0F4ED80646BEF1FF0F4CD84FEA8C02FD
:100FCC0033680F25954023EA050304FA02F2134314
:100FDC0033604B6813F0805F6ED0674B9A6942F0B8
:100FEC0001029A619B6903F001030193019B4FEA93
:100FFC009C02951C614B53F825600CF003039D007B
:10100C000F23AB4026EA03065D4B984229D003F52B
:10101C008063984200F08E8003F58063984200F064
:10102C008B8003F58063984219D004231AE0CC68B6
:10103C00BDE7CC680434BAE7CC680834B7E7CC68B1
:10104C000C34B4E703610824B1E70024AFE70424AF
:10105C00ADE7061DAFE7ACF108029200B0E7032341
:10106C0000E00023AB4033430232444D45F82230BC
:10107C004B6813F4803F61D0424A136843EA0E0375
:10108C0013604B6813F4003F5ED03E4A536843EA4A
:10109C000E0353604B6813F4801F5BD0394A93687E
:1010AC0043EA0E0393604B6813F4001F58D0354A83
:1010BC00D36843EA0E03D3600CF1010C0A6832FAD0
:1010CC000CF353D0012303FA0CF302EA030E33EAB8
:1010DC000202F1D14A68122A3FF649AF122A3FF6B2
:1010EC0066AF01A555F822F0A30F00083B100008CD
:1010FC004510000857100008BB0F0008BB0F000874
:10110C00BB0F0008BB0F0008BB0F0008BB0F00088B
:10111C00BB0F0008BB0F0008BB0F0008BB0F00087B
:10112C00BB0F0008BB0F0008BB0F00083F100008E6
:10113C004B100008012395E7022393E7114A13682B
:10114C0023EA0E0313609CE70E4A536823EA0E034E
:10115C0053609FE70B4A936823EA0E039360A2E760
:10116C00084AD36823EA0E03D360A5E702B070BD2A
:10117C00000022100000311000100240000001405D
:10118C0000080140000401400AB1016170470904E4
:10119C000161704790F82130022B06D00423836341
:1011AC00002380F82030012070470268136823F078
:1011BC000E0313600268136823F001031360036CC1
:1011CC00C16B012202FA03F34B6080F8212000234B
:1011DC0080F820301846704708B590F82130022B63
:1011EC0003D004238363012008BD0268136823F035
:1011FC000E0313600268136823F001031360036885
:10120C00194A934214D0143293421FD01432934291
:10121C001ED0143293421ED0143293421ED014327C
:10122C00934202D04FF0807203E04FF4801200E042
:10123C0001220E4B5A60012380F82130002380F8E4
:10124C002030436B6BB198470020CDE71022F0E7BC
:10125C004FF48072EDE74FF48052EAE74FF480329E
:10126C00E7E70020C0E700BF080002400000024092
:10127C00074AD36823F4E0631B041B0C000200F440
:10128C00E060034343F0BF6343F40033D360704723
:10129C0000ED00E000B5194BDB68C3F30223C3F18A
:1012AC00070CBCF1040F28BF4FF0040C03F1040E23
:1012BC00BEF1060F18D9033B4FF0FF3E0EFA0CFCA3
:1012CC0021EA0C0199400EFA03F322EA03031943B5
:1012DC0000280BDB0901C9B200F1604000F5614048
:1012EC0080F800135DF804FB0023E5E700F00F0025
:1012FC000901C9B2024B1954F4E700BF00ED00E03C
:10130C0014ED00E0002807DB00F01F024009012368
:10131C009340024A42F82030704700BF00E100E0E1
:10132C000138B0F1807F0BD24FF0E0235861054AB1
:10133C00F02182F823100020986107221A6170476F
:10134C000120704700ED00E00268D36823F490732D
:10135C00D3600268536923F001035361036B012BC3
:10136C0005D0202380F83E300023036370470268C9
:10137C00D36823F01003D360F3E790F83D30DBB271
:10138C00212B01D0022070478368B3F5805F17D002
:10139C00036A5A1C02621A7803685A60C38C9BB2A7
:1013AC00013B9BB2C3844BB90268D36823F0800322
:1013BC00D3600268D36843F04003D36000207047C9
:1013CC000369002BE4D1036A1B880268C3F308038A
:1013DC005360036A02330362E0E7000010B5044671
:1013EC000268136923F44053C1680B43136183688B
:1013FC000269134342691A430168CB6823F4B05362
:10140C0023F00C031343CB600268536923F440733D
:10141C0081690B4353610268134B9A4220D0FFF74A
:10142C0081FD024602EB820202EB820263689B00A2
:10143C00B2FBF3F20D48A0FB02314909642303FB14
:10144C0011231B013233A0FB03235B0903F0F002D1
:10145C0002EB011203F00F03216813448B6010BDE3
:10146C00FFF770FD0246DDE7003801401F85EB51A8
:10147C0058B310B5044690F83D300BB3242384F8D0
:10148C003D302268D36823F40053D3602046FFF725
:10149C00A5FF2268136923F49043136122685369F2
:1014AC0023F02A0353612268D36843F40053D360BA
:1014BC0000202064202384F83D3084F83E3010BD99
:1014CC0080F83C30FEF772FFD8E70120704790F8A7
:1014DC003D30DBB2202B19D1D1B1DAB190F83C30D0
:1014EC00012B19D0012380F83C3001628284C28424
:1014FC0000230364212280F83D2080F83C300168F1
:10150C00CA6842F08002CA601846704702207047D1
:10151C00012070470120704702207047704708B5C2
:10152C000168CA6822F04002CA60202280F83D207F
:10153C00FFF7F4FF002008BD7047704708B5406AFC
:10154C000023C385C384FFF7F8FF08BD704790F8EC
:10155C003E30DBB2222B60D18368B3F5805F46D07E
:10156C00826AB3F5805F04D0002B4DD10369002B48
:10157C004AD103685B681370836A01338362C38D3D
:10158C009BB2013B9BB2C385002B48D100B583B005
:10159C000268D36823F02003D3600268D36823F475
:1015AC008073D3600268536923F0010353612023D5
:1015BC0080F83E30036B012B2CD1002303630268AF
:1015CC00D36823F01003D36003681A6812F0100F6D
:1015DC0006D0002201921A6801925B680193019B6C
:1015EC00818DFFF7B3FF002003B05DF804FB0269A7
:1015FC00002AB5D1826A03685B68C3F308031380C1
:10160C00836A02338362BAE703685B6803F07F0383
:10161C001370B1E7FFF790FFE5E702207047002059
:10162C007047000030B583B0044602681368D06878
:10163C00516913F00F0505D113F0200F02D010F0F3
:10164C00200F19D12DB111F0010119D110F4907F97
:10165C0016D1216B012975D013F0800F03D010F037
:10166C00800F40F0D78013F0400F03D010F0400FE4
:10167C0040F0D48003B030BD2046FFF768FFF9E797
:10168C0013F0010F06D010F4807F03D0226C42F0CF
:10169C000102226413F0040F04D019B1226C42F041
:1016AC000202226413F0020F04D019B1226C42F032
:1016BC000402226413F0080F07D010F0200F00D1A1
:1016CC0019B1226C42F008022264226C002AD1D09B
:1016DC0013F0200F02D010F0200F21D123685B698A
:1016EC0003F04003226C12F0080F00D123B3204604
:1016FC00FFF72AFE23685A6912F0400F18D05A6976
:10170C0022F040025A61A36B73B1464A5A63A06B34
:10171C00FFF762FD0028ADD0A06B436B9847A9E79B
:10172C002046FFF714FFD9E72046FFF706FFA1E795
:10173C002046FFF702FF9DE72046FFF7FEFE002341
:10174C00236497E713F0100F86D010F0100F83D09E
:10175C00002301931368019353680193019B536910
:10176C0013F0400F32D0A16B0B685B689BB2002B5F
:10177C0080D0A08D98427FF67DAFE3858B69202BBE
:10178C0008D1A18DE38D9BB2C91A89B22046FFF70F
:10179C00DDFE6FE7D36823F48073D360226853694E
:1017AC0023F0010353612268536923F04003536112
:1017BC00202384F83E30002323632268D36823F06F
:1017CC001003D360A06BFFF7E5FCDAE7A18DE38D86
:1017DC009BB2C91A89B2E38D9BB2002B3FF44AAF7E
:1017EC0000293FF447AFD36823F49073D360226889
:1017FC00536923F001035361202384F83E30002306
:10180C0023632268D36823F01003D3602046FFF7CC
:10181C009DFE2FE72046FFF7B0FD2BE72046FFF794
:10182C007EFE27E749150008704700000C480D495B
:10183C000D4A002302E0D458C4500433C4188C421F
:10184C00F9D30A4A0A4C002301E013600432A24285
:10185C00FBD3FFF7E9FF00F00FF8FEF717FD704719
:10186C00000000201400002028190008140000209B
:10187C00C4000020FEE7000070B500260C4D0D4C96
:10188C00641BA410A64209D100F022F800260A4DD0
:10189C000A4C641BA410A64205D170BD55F8043B3C
:1018AC0098470136EEE755F8043B98470136F2E7C6
:1018BC002019000820190008201900082419000814
:1018CC0003460244934200D1704703F8011BF9E729
:1018DC00F8B500BFF8BC08BC9E467047F8B500BF11
:0818EC00F8BC08BC9E467047E1
:1018F40002030405060708090A0B0C0D0E0F10104D
:1019040000000000000000000000000001020304C9
:0C1914000607080900000000010203049F
:041920003101000889
:041924000D010008A9
:10192800FF010000FF02010001000000100000009C
:041938000024F40093
:04000005080018399E
:00000001FF
